:020000021000EC
:1080000000400020E1FD01001DFE01001FFE0100F7
:108010000000000000000000000000000000000060
:1080200000000000000000000000000021FE010030
:10803000000000000000000023FE010025FE0100FA
:1080400027FE0100A9B301006902020027FE01001A
:1080500027FE01000000000027FE010027FE0100AE
:1080600027FE0100E904020027FE010027FE0100AF
:1080700027FE010027FE010027FE010027FE010068
:1080800027FE010027FE010027FE010027FE010058
:1080900027FE0100B1E501008DE5010027FE01008A
:1080A00027FE010027FE0100000000000000000084
:1080B00000000000000000000000000000000000C0
:1080C00010B5064C2378002B07D1054B002B02D0AE
:1080D000044800E000BF0123237010BDB02300203E
:1080E000000000007468020008B5084B002B03D0A4
:1080F0000748084900E000BF07480368002B00D18B
:1081000008BD064B002BFBD09847F9E700000000A4
:1081100074680200B4230020A8230020000000009F
:10812000164B002B00D1144B9D46402292029A1A06
:10813000924600218B460F461348144A121A0DF03E
:108140000CFC0F4B002B00D098470E4B002B00D09F
:1081500098470020002104000D000D48002802D09F
:108160000C4800E000BF0AF095FA200029000DF04D
:10817000EDF80AF079FAC04600000800004000203F
:108180000000000000000000A8230020782B002041
:108190000000000000000000054A1368191D11606E
:1081A00004490A68501C086012781A607047C0467B
:1081B000C4200020D02300200D4A30B51368591C7C
:1081C0001160991C1C78116059780D02D91C11603E
:1081D000997808042918181D1060DB7809191B0606
:1081E000CB1804490A68101D0860136030BDC046F2
:1081F000D0230020C4200020074A30B51368074C64
:10820000591C116020681978051D02332560036030
:108210005B18136030BDC046D0230020C42000206E
:10822000134AF0B51168134E4B1C13608C1C087870
:1082300014604B7837681B021B180F4801680C60EC
:10824000C024A4021D190C1C083404600B4C1C191A
:1082500014602C788F604C600C1C09490C345B183E
:108260000460346013606B789B00E3180360F0BD1A
:10827000D0230020CC230020C420002001000300D4
:1082800002000300114A08B51368591C11601B78DD
:108290000F49DA00DB005B5804325258012B0ED034
:1082A000002B0AD0022B10D10A480368191F083B83
:1082B000096803601868904707E0904705E00549A2
:1082C0000B68043B0B601868904708BDD023002062
:1082D00048210020C4200020144A10B51368144C13
:1082E000591C11601B781349DA00DB005B5804321B
:1082F0005258012B0DD0002B09D0022B0FD123682F
:10830000191F083B096818682360904708E09047E8
:1083100006E02368043B23601868904700E00020D3
:1083200023681A1D2260186010BDC046D0230020AB
:10833000C420002048210020094A1368002B0DD0DA
:10834000191F096811601A1C083A12680C3B920048
:10835000186804499B1A044A086013607047C046B5
:10836000CC230020D0230020C42000200B480C4A3E
:10837000036830B5043B1C681368191F0968116055
:108380001A1C0C3B083A11681A1C064B15681D6034
:108390008B00D31A1A1D02601C6030BDC42000205F
:1083A000CC230020D02300201048114B0168F0B5E9
:1083B0001D680C1F22682560C024A40215190C1D1D
:1083C00004600C4C0C4E14191C602C7837680C603F
:1083D0000C1C4F60094908345218046034601A605C
:1083E0006B789B00E3180360F0BDC046C4200020FA
:1083F000D023002001000300CC2300200200030052
:108400000649074A0B6830B51568181F04680560EF
:10841000181D086000211960146030BDC4200020C0
:10842000D023002070B50A4C0A4922680B68101F3F
:10843000056803600848043B06681660161C083689
:108440002660032454601B6805600B6070BDC04645
:10845000C4200020CC230020D0230020054A13682C
:10846000191F086804490860191D116002221A606A
:108470007047C046C4200020D0230020094B70B5AF
:108480001A68111C08390868141F2568196000282B
:1084900006D0054806680E601A6000232360056058
:1084A00070BDC046C4200020D02300200A4A70B509
:1084B00013681C1C1D1F0C3B1E68083C29682068A3
:1084C000002E00D1081C05490E681E6000231560AF
:1084D0002360086070BDC046C4200020D023002067
:1084E000054A1368191D1160044A043B116859605C
:1084F0001B6813607047C046C4200020D0230020B2
:10850000054A1368191F083B096813601B68034A72
:108510009B009B1819607047C42000208030002009
:10852000044B05491A68043A13689B005B181B68E2
:1085300013607047C420002080300020054910B52A
:108540000B68181F083B02681C680860A2181A60B4
:1085500010BDC046C4200020054910B50B68181F87
:10856000083B04681A680860121B1A6010BDC046F8
:10857000C4200020054910B50B68181F083B02688D
:108580001C68086062431A6010BDC046C420002009
:10859000054B10B51C68221F083C116820681A6042
:1085A00008F04EF9206010BDC4200020F8B5074D3A
:1085B0002C68261F3768083C2068391C08F026FA0A
:1085C000002900DAC9192E602160F8BDC4200020FE
:1085D000034B1B68043B00215A5E1A607047C0467B
:1085E000C42000200022034B1B68043B9A561A60EB
:1085F0007047C046C4200020064910B50B68181FFC
:10860000083B04681A680860121B51424A411A600C
:1086100010BDC046C4200020064910B50B68181FC5
:10862000083B04681A680860121B511E8A411A60D0
:1086300010BDC046C4200020064A10B51368191F9B
:10864000083B08681C6811600122844200DC00229B
:108650001A6010BDC4200020064A10B51368191F07
:10866000083B08681C6811600122844200DB00227C
:108670001A6010BDC4200020054910B50B68181FF2
:10868000083B04681A68086022401A6010BDC046A2
:10869000C4200020054910B50B68181F083B02686C
:1086A0001C68086022431A6010BDC046C420002028
:1086B000054910B50B68181F083B02681C68086064
:1086C00062401A6010BDC046C4200020054A1168EF
:1086D0000B1F1868136011600022002800D10122CE
:1086E0001A607047C4200020084810B503681C1F9A
:1086F0002168083B03601A680460002902DA4942D5
:108700000A4100E08A401A6010BDC046C420002023
:10871000044A11680B1F1868136000781160186014
:108720007047C046C4200020044A1368191F083B44
:10873000096813601B6819707047C046C420002088
:10874000034B1B68043B1A6812881A607047C046C6
:10875000C4200020044A1368191F083B09681360ED
:108760001B6819807047C046C4200020034B1B685B
:10877000043B1A6812681A607047C046C420002083
:10878000044A1368191F083B096813601B681960C5
:108790007047C046C4200020024A1368191D1160AA
:1087A0001B607047C4200020002270B50E4D0F4C96
:1087B0000F4B2E6820601A602B68B34206D000F081
:1087C00009FF00280FD100F0B1FB2E6823685A1C66
:1087D00022601B785A1ED2B2FD2A04D8054A9B009B
:1087E0009B589847E8E770BDD4230020D023002091
:1087F000CC2300200420002008B50248FFF7D4FF56
:1088000008BDC046003000200020094A1368591CEA
:1088100011601856074B002804DA01301B688000ED
:10882000181A04E0800040421B681038181870477E
:10883000D0230020CC230020044B10B51C68221D3F
:108840001A60FFF7E1FF0368236010BDC420002019
:1088500008B5FFF7D9FF034A1368043B13601B6890
:10886000036008BDC4200020054A1368191F083B97
:108870000868136003491A68034B08601A60704760
:10888000C4200020D0230020CC2300200C4910B5A8
:108890000B680C4C181C0C380268002A04D1043BED
:1088A0001B680860236009E0013A02601A1C083A5C
:1088B000126822601A1D0A6001221A6010BDC046AB
:1088C000C4200020D02300200D4A08B51368191FCA
:1088D00008681160032811D807F018FF02080B0E72
:1088E000083B13601A68074B1A6007E0FFF7CEFFDA
:1088F00004E0FFF7B3FD01E0FFF7B6FF08BDC04697
:10890000C4200020D0230020054A08B51368191D93
:108910001160044A12681A60FFF7B8FF08BDC0462C
:10892000C4200020D0230020084A10B5136808484E
:10893000191F0C6811600839002C02D10B68036004
:1089400003E0083B1B681160036010BDC4200020D9
:10895000D0230020024A1368013313607047C046D9
:10896000D423002010B5041C034B0833036001F02E
:10897000BDFB201C10BDC046C05B0200002310B52B
:10898000041C83808371034B0833036001F090FB68
:10899000201C10BDC05B0200014B18607047C04630
:1089A000982600200022014B1A607047982600206C
:1089B000014B18687047C046D42300200A1C08B534
:1089C000C117D31708F0ACF8024A002308F064F886
:1089D00008BDC0468096980010B50C1C044A0023C0
:1089E000C11708F09DF8E317221C08F055F810BDD8
:1089F0008096980008B5011C014802F0ABF908BD4B
:108A0000B025002008B502480AF0B3FD08BDC046F5
:108A1000D823002008B502480AF0ABFD08BDC046C7
:108A20000024002010B5041C044B03CB01F00EFA07
:108A3000211C0022024802F0E3F810BDA825002006
:108A4000B0250020052110B50D4B1A781C1C0132F1
:108A5000D2B21A704A43C421890252181278FF2AEE
:108A600001D100232370074B03CB01F0EFF92178EC
:108A700000222031C9B2044802F0C2F810BDC0463D
:108A8000DE2A0020A4260020B025002008B5021C04
:108A9000024903480CF026FC08BDC046866302006C
:108AA000CC26002008B5021C024903480CF01AFC31
:108AB00008BDC0468A630200CC26002008B5C2B2B9
:108AC000024903480CF00EFC08BDC046906302004A
:108AD000CC26002008B582B2024903480CF002FC03
:108AE00008BDC04696630200CC26002008B5021CD3
:108AF000024903480CF0F6FB08BDC0469C63020027
:108B0000CC26002070B5051C0C1C2978002949D002
:108B1000252940D169786E1C642934D006D80029F3
:108B200040D0622932D12048204925E01E4D6829D5
:108B300020D0772924D0662928D1201C1C4907F091
:108B40007FFE1C49021C281C0CF0CCFB1A49281C77
:108B50000CF0C8FBE317E4185C40201C144907F034
:108B600055FF081CFA21890007F06AFE1349021C10
:108B7000281C02E0281C1249221C0CF0B3FB0FE059
:108B8000281C1049F8E708480A49F5E70222064878
:108B900002F03AFF04E00448022202F035FF2E1CE6
:108BA000751CB2E770BDC046CC260020A063020051
:108BB00080969800AA630200AD630200AF630200D2
:108BC000B4670200A563020007B5011C01A801F00B
:108BD0009BFA01A97822034802F094F801A80AF050
:108BE00000FB07BDB0250020031C13B50C1C01A819
:108BF000191C01F089FA01A9221C034802F022F88D
:108C000001A80AF0EEFA13BDB025002008B503480C
:108C10000AF04AFE0022024B1A7008BDB02500205F
:108C2000DE2A002008B5031C0A1C0248191C0BF0A0
:108C300011F808BDE42A002008B5011C01480AF01B
:108C4000F1FF08BDE42A002008B501F019FA014B34
:108C5000186008BD2C24002008B501F011FA024B61
:108C60001B68C01A08BDC0462C24002008B5034864
:108C700004F0B8F9024802F0DFFB08BD2C27002001
:108C80003026002007B56B46D91D08700248012226
:108C9000183002F003FD07BD3026002013B50A4C42
:108CA000201C0AF02FFF6B46201CDC1D1830211CF5
:108CB000012202F0D5FC054B984201D0207801E05A
:108CC0000120404216BDC0463026002017FCFFFFA1
:108CD00038B5134CC0002418206808F0BFFD1149B6
:108CE00008F0FAF8051C606808F0B8FD0D4908F0B6
:108CF000F3F8291C041C281C08F0E0FA211C051CB0
:108D0000201C08F0DBFA011C281C07F069FF09F0A1
:108D1000C3FB044908F0D2FA08F080FD38BDC04614
:108D2000482400208096184B70B5104D041E287002
:108D30000F4E632C0CD80F4B03CB01F087F8211C8E
:108D40002031C9B2301C002201F05AFF2C700CE017
:108D5000094B03CB01F07AF8211C4439C9B2301C0D
:108D6000002201F04DFF00232B7070BDDE2A002091
:108D7000B0250020A42600204C25002010B5154C5D
:108D80000121201C0AF072FD6421201C01F0E2FF89
:108D90006520FFF7C9FF32200AF08AF86620FFF746
:108DA000C3FF32200AF084F86720FFF7BDFF3220AE
:108DB0000AF07EF86620FFF7B7FF32200AF078F855
:108DC0006520FFF7B1FF32200AF072F8FFF71EFFAF
:108DD00010BDC046B025002008B5144B1968002905
:108DE00005D0134B186807F021FD00291AD011484F
:108DF0000AF0BFFB104B1A6851424A41024202D0AE
:108E000001210E4A116018600D480AF0B2FB0D4BAB
:108E10001A6851424A41024202D001210A4A1160B5
:108E2000186008BD0122094B1A60E0E7982600206F
:108E3000D4230020D82300209C260020AC2600202C
:108E400000240020A02600204825002028240020FF
:108E500038B504AC2578084CE370084B207061707D
:108E600003CBA270257100F0F1FF202100220448FD
:108E700001F0C6FE38BDC046DF2A002028260020AB
:108E8000B025002008B502480AF02AF808BDC046FF
:108E90008C2A002008B502480AF022F808BDC04616
:108EA0004C2A002008B502480AF01AF808BDC0464E
:108EB0000C2A002070B5FFF7E5FF08F0CFFCEA218F
:108EC000890508F0FBF9061CFFF7E4FF08F0C6FC73
:108ED000EA21890508F0F2F9051CFFF7E3FF08F025
:108EE000BDFCEA21890508F0E9F9311C041C301C9D
:108EF00008F0E4F9291C061C281C08F0DFF9011C05
:108F0000301C07F06DFE211C051C201C08F0D6F952
:108F1000011C281C07F064FE09F0BEFA024908F0A3
:108F2000CDF908F07BFC70BD8096184BF8B5134F57
:108F3000134D1F24381C01212E680AF0DFFA264049
:108F4000104B7600F0520121381C2E680AF0E9FA25
:108F500026400D4B7600F0520121381C2E680AF095
:108F6000F3FA3440094B6400E0522C68FFF7A2FF8B
:108F70000F23074A23409B009850F8BD542500203A
:108F8000D42300208C2A00204C2A00200C2A002008
:108F90005826002082B0F0B5051C181C0C1C89B0A6
:108FA0000F93CB170293109EC3170393D317049309
:108FB000F31701920593221C029B0399009007F07E
:108FC000AFFD174A002307F067FD019A049B071CB9
:108FD0000599301C07F0A4FD114A002307F05CFD41
:108FE0003F1A2F60009A039B0198049907F098FD9F
:108FF0000B4A002307F050FD221C029B071C059919
:10900000301C07F08DFD064A002307F045FD3F1890
:10901000281C6F6009B0F0BC08BC02B01847C046FD
:10902000809698000523F0B502258DB002930026A6
:10903000EB006F100793FB000593BE4247D0291C3D
:10904000700107F0FDFB264BC000181808AC0CC8D7
:109050000CC4291C202007F0F3FBF400214B04343E
:109060001C19F3190493002306900393039B069A9B
:1090700093422AD0049A1B4BD200991849680AA837
:109080000091D3580899099AFFF784FF22680B9939
:10909000231F521A944605990A9A081F1968891ABB
:1090A00021506146059AA15019680A9A2068521801
:1090B0001A60039B0B9901330393079B08182060E8
:1090C000E418049B5B190493D0E70136B5E7029BD3
:1090D0006D00013B0293002BA9D10DB0F0BDC0463D
:1090E000C82000204824002038B50023181C114C4B
:1090F0001A5904338018402BF9D10F4A0023C117A5
:1091000007F00EFD0D4A002307F0C6FC00210023E6
:109110000B4A55188B506B60802508316D00A942B1
:10912000F5D1E1585D00091A04335151402BF8D1B3
:1091300038BDC046582600208096980000688909EE
:10914000482400200D4BF7B59C4600210C4A8800AE
:1091500082588A420CDD58681F1C01906046D2007C
:1091600080181E6830C830C701986244166050608D
:10917000013108332029E9D1F7BDC0464824002039
:1091800060220020F7B5304D0621281C2F4A01F03F
:10919000C3FB2F4C281C221C2E490CF07BFB002506
:1091A00001222D4F131C0095381C112101F0D6FA15
:1091B0002A4E221C311C381C0CF06CFB284F01235A
:1091C0000095381C1A21022201F0C8FA381C311C03
:1091D000221C0CF05FFB234E2A1C301C1E210AF0BF
:1091E00068FB214D0423311C281C3A2201F0A8F809
:1091F000221C1E49281C0CF04DFB1D4800F01EFED1
:109200001C4928221C4809F03FFFC421342289024E
:109210001A4809F039FF1A4922221A4809F034FF86
:10922000194D281CFFF7AAFB221C281C17490CF01B
:1092300031FB174D1D21281C02F038F8281C154958
:10924000221C0CF027FBF7BDB02500200C600200AB
:1092500000200020D1A80100D823002045A701004C
:1092600000240020302400205425002021A20100E9
:10927000A8250020542300204C250020A4260020EF
:10928000DF2A002028260020A02500206589010073
:1092900030260020A72E020008B50348012102F065
:1092A00013FCC0B208BDC046CC26002008B5011C86
:1092B0000122024802F0A8FB08BDC046CC260020CF
:1092C00008B5054B0021186803F0F4FB034B9842E6
:1092D000F7D0C0B208BDC046542700200CFCFFFFE9
:1092E00008B5034B011C022218680AF0E7FE08BD0E
:1092F0005427002010B5041C054B03601C3009F0F6
:1093000070FF201C183009F06CFF201C10BDC046F7
:10931000A85C020010B5041C034B0360403009F048
:1093200060FF201C10BDC046E05B020008B502488B
:10933000002102F0C9FB08BDCC260020962130B5E3
:10934000214C87B0201CC90102F02EFA1F4D281CA9
:1093500000F08AFB1E491F4800F098FD02A81E4934
:1093600000F0D2FE03A81D4900F0CEFE02A904A819
:1093700009F07FFF03A905A809F07BFF002304A9DA
:1093800005AA009316482B1C03F0AEF805A809F0B7
:1093900028FF04A809F025FF1C2000F0A5FD2022CD
:1093A000051C131C0F4903F045FA0F4B0F49201CF5
:1093B0001D600BF097FF03A809F013FF02A809F046
:1093C00010FF07B030BDC046CC260020B0260020DC
:1093D00000200020001C0020B4630200BF630200D4
:1093E000342700202C27002054270020C5630200CA
:1093F00038B5044D2B6898472B68041C9847000229
:10940000001938BD58270020F8B5094F3B68984728
:109410003B68061C98473B68041C98473B68051C42
:1094200098472D0400064019801924020019F8BD40
:109430005827002038B5FFF7E7FF041CFFF7D8FFD7
:109440000519AC4205D0034B20781B6898470134BE
:10945000F7E738BD5C27002038B5FFF7D5FF041CBF
:10946000FFF7C6FF0519AC420CD0074B1B689847A5
:10947000064B20701A68064B9A4201D1FFF716FF7F
:109480000134F0E738BDC046582700205C27002093
:10949000AD92010008B5FFF7AFF9024BCF201B6872
:1094A000984708BD5C27002037B5FFF7ADFF041CC7
:1094B000FFF7AAFF051CFFF79BFF0022291C031CD6
:1094C00000920448221C02F0B9FC034BBF201B6829
:1094D000984737BDE42A00205C27002008B5FFF735
:1094E00093FF011C034802F031FC034BAF201B68C3
:1094F000984708BDE42A00205C270020F0B50C4CFA
:1095000085B0236898472368071C98472368061C82
:1095100098472368051C9847236803909847311C97
:1095200000902A1C381C039BFFF792FC05B0F0BD8D
:109530005827002008B5FF2803D1134BE8381B68D3
:109540001FE0FE2802D1FFF775FF1BE0FD2802D1C6
:10955000FFF782FF16E0FC2802D1FFF79BFF11E026
:10956000FB2802D1FFF7A0FF0CE0FA2802D1FFF799
:10957000B5FF07E0F92802D1FFF7C0FF02E0024B78
:109580001B68984708BDC0465C27002008B5044A00
:10959000044B1A60044A054B1A60FFF7CBFF08BD65
:1095A0009992010058270020AD9201005C2700200D
:1095B00008B5044A044B1A60044A054B1A60FFF7C9
:1095C000B9FF08BDC192010058270020E1920100B7
:1095D0005C27002008B5054B0021186803F06AFAE3
:1095E000FD239B00C018431E984108BD542700204E
:1095F00070B5FFF7A3FEFFF7C1FB1B4C256823687E
:10960000AB4204D0FFF7E8FBFFF790FC2568FFF7BB
:109610008DFE164EB04202D0C0B2FFF7B7FF144B1A
:109620000021186803F046FAB04202D0C0B2FFF73A
:10963000BFFF104B1A68002A03D00020186009F001
:1096400019FC0D4B1A68002A04D0002204201A606D
:1096500009F010FC094B1A68002AD0D0002208201B
:109660001A6009F007FCCAE7D42300200CFCFFFFB6
:109670005427002028240020AC2600204825002064
:10968000142373B5164D0093281CB43318211922E6
:1096900002F094F8134C1449221C281C0CF0FAF820
:1096A000124E301C0AF007FB114802F03DFB114D31
:1096B000281C01F091FD221C281C0F490CF0EAF82F
:1096C0000E4D311C281C02F0BDFE281C221C0C492A
:1096D0000CF0E0F800210B4803F04CFC73BDC046D1
:1096E000CC2600200020002015930100E52A002050
:1096F000E42A0020B026002099B101003427002080
:10970000F59201002C270020BFF34F8F024A034B34
:10971000DA60BFF34F8FFEE70400FA0500ED00E0CA
:10972000F0B597B018220021061C10A80CF015F90E
:1097300010A813210BF018FF10A803210BF0B5FFA0
:109740000122554B01921B68002B01D0DBB2019323
:1097500000240BA80021514A012306F0E9FC221C39
:109760004F4BB342624153421E4072B64D4B1022E2
:10977000211C07A81F680CF0F0F84B4B6421301C2B
:10978000079307F05DF80A2107F040F905256943C2
:10979000503179180891301C0A2107F051F80A213C
:1097A00007F034F96943503179180991301C0A21C6
:1097B00007F02CF94D4350357F190A978027BF01D8
:1097C000019B002B4BD00026384B751E1D4004D545
:1097D0000423013D5B421D430135B3000493002384
:1097E0000293032C02D180270024BF01049A07AB07
:1097F000D3582F4A9C4663000133D31800220392AA
:1098000061461878095C581E0591017810200841BE
:109810000599084204D00120904003990143039127
:1098200001320633092AEBD1039B07AAD943214B06
:1098300009011940AB009B589C4505D1029B312B77
:1098400002DC0BA8002101E039430BA80BF0E8FF74
:10985000FA23159A1199DB001068014201D1FFF734
:1098600053FF013B002BF7D1029B013401330293DC
:10987000FA23029A7F00E4B25B009A42B1D101362A
:10988000042EA1D1044B1B68002B99D0019B013BF6
:10989000DBB2019394E7C04660270020F0FF000090
:1098A000E7030000E02200200864020003000080BB
:1098B000D2630200F01F0000F0B585B01F1C0AAB98
:1098C0001B88061C0D1C02920393002F1BD028201E
:1098D00000F00AFB6B46041C1A89039BA9B2009393
:1098E0003B1C09F01DFC3368301C5B68211C984749
:1098F00000280BD0002C08D0201C09F028FC201CCC
:1099000000F014FB01E0024800E0024805B0F0BDA1
:1099100017FCFFFF16FCFFFF38B50B4B1C68002C33
:1099200010D0656D00F0ACFBA36C002901D183421F
:1099300006D8201C09F03FFB201C044909F028FB35
:109940002C1CECE738BDC04688270020902700205B
:10995000F0B5041C93B00793230C0293284B04909A
:109960001C68284B05911E68069285B20027002EC0
:1099700043D0002C2DD0636D23490393A36C9AB27E
:109980001B0C8D4211D121498A420ED1002B02D0ED
:10999000029A93421BD1002F18D1201C09F00BFB17
:1099A000201C1B4909F0F4FA10E0002A01D0AA4259
:1099B0000DD1002B02D0029A934208D1201C09F04D
:1099C000FAFA201C124909F0E3FA00E00127039C8F
:1099D000CFE7104BEB18012B0FD91023291C009354
:1099E000029A0D4B08A809F09BFB3368301C9B685A
:1099F00008A9984708A809F0AAFB13B0F0BDC04613
:109A00008427002094270020FE030000FF030000AD
:109A10009027002002FCFFFF5199010010B572B69B
:109A20000B4B1C68002C03D0201C09F0C4FA08E082
:109A300062B65C2000F058FA00215C22041C0BF096
:109A40008CFF0023E364034B201CE36310BDC0467E
:109A50006427002000400020024B187801231840A2
:109A60007047C046E62A0020F7B5061CFFF7F4FF52
:109A7000041E33D11A4D2E60FFF7D0FF194B1A493F
:109A8000186009F085FAFFF7C9FF184B1860184BEA
:109A90004363184B8363286800280ED0C027164EF6
:109AA0001649221C331C0097FFF706FF0097286811
:109AB0001349221C331CFFF7FFFE0C2000F014FAA0
:109AC0000023838083710F4B03600F4B836000F092
:109AD000EFFA01210D4A13780B431370F7BDC0460E
:109AE0009427002068270020902700209827002036
:109AF000FC3F00207D30020051990100FF0300006F
:109B0000FE030000F05B020019990100E62A002024
:109B1000F7B5002801D1002019E00029FBD00193FE
:109B2000171C0D1C061CFFF779FF041EF3D0084B11
:109B3000019A4363066045608760064B002A00D0A7
:109B4000054B201CA363054909F022FA201CFEBD29
:109B5000FC3F0020473002006530020090270020C3
:109B6000024B1868434258417047C0469027002076
:109B7000002310B504499C006258002A01D001332B
:109B8000F8E76050101C10BD6C270020002310B5B2
:109B9000044A99008C58844201D00133F8E7002030
:109BA000885010BD6C27002010B50024074BE058EA
:109BB000002802D003685B6898470434182CF5D15C
:109BC000034B1B68002B00D120BF10BD6C27002069
:109BD00090270020F8B5FFF73FFF002855D02B4E07
:109BE0003468351CE36CDA0718D502252B43E3648F
:109BF0000423274F3868C26C1343C364636BC36389
:109C000009F0FFF93B68181C596C03F080F83068C4
:109C1000C36C2B4239D003F0B4F836E01D4F1E4E12
:109C20003A68002A01D1326806E0216DB94203D1B9
:109C3000616D002900D00A1C2A602A6831688A42B6
:109C400008D11B0706D52C60FFF7AEFF3B68002B41
:109C5000FAD02B602B68A34217D03268934204D10C
:109C60000E4A5A630E4A9A6305E0944203D10020DB
:109C7000191C021C06E0201C09F0C3F92B68201CEB
:109C8000191C626C5B6C03F001F8F8BD68270020BA
:109C90008C2700209027002098270020FC3F0020E0
:109CA0007D30020038B5114B051C1C68FFF7D4FE4F
:109CB000002803D1281C0BF0F1FC16E0E36CDB0755
:109CC00006D5FFF7ABFE0A4B1860002800D0041C35
:109CD00000F0D6F92818A064201C09F06CF9201CAB
:109CE000044909F055F9FFF775FF38BD68270020D2
:109CF0008C27002088270020F0B51E4B85B01C68FB
:109D00001D4B1A680393002A05D00F1C051CFFF792
:109D1000A3FE002801D119482AE0E36CDB070ED529
:109D2000FFF77CFE164B061E186008D009F043F9B9
:109D3000301C144909F02CF9341CFFF74BFF3B048D
:109D40002B43A364201C09F036F9201C0E4909F0AE
:109D50001FF90E4B0020EB18012B09D9C0230093EB
:109D6000039B291C18683A1C094BFFF7A5FD00202E
:109D700005B0F0BD682700209427002016FCFFFFE7
:109D80008C270020902700208427002002FCFFFF62
:109D90005199010010B5FFF75FFE002809D0054C6E
:109DA000206809F008F92068034909F0F1F8FFF785
:109DB00011FF10BD6827002064270020F7B5002898
:109DC0002FD00C1C051CFFF747FE00282BD00726C0
:109DD000164F3868C36C1E4006D0281C211C144A3C
:109DE00009F000F900261FE002F0B3FF02213A68F3
:109DF000D36C1940019103D003218B43D36413E04A
:109E000001263343D364201CA8473A68D36C191C3D
:109E1000B143D164019E5B0706D5201C09F01AF9F5
:109E200002E0044E00E0044E301CFEBD6827002016
:109E30005530020017FCFFFF16FCFFFF024B1B68AA
:109E400003607E2343607047E022002082B06B46AF
:109E5000034A0090019103CB03C202B07047C04691
:109E60009C270020021C10B5014B12CB12C210BD62
:109E70009C270020034A044B12681A607E225A6015
:109E80007047C046E02200209C27002070B5124D8C
:109E9000031C2A78022A1AD081421AD90A1A072AE0
:109EA00017D9081C032218431040041E11D11A1C94
:109EB00072B62878094EC300F0189A51416009F033
:109EC000E6F82B7801332B7062B6201C02E00448C0
:109ED00000E0044870BDC046E72A0020A427002007
:109EE00013FCFFFF17FCFFFF38B5051C00240D4BCA
:109EF0001B789C4209DA0C49E300C918281C09F0B8
:109F0000CEF800280AD10134F1E7281C08F0E8FB5C
:109F1000041E04D11420FFF703FC00E0041C201CE5
:109F200038BDC046E72A0020A427002038B5002805
:109F300018D00D4B1C780023A34211DA0B49DA002C
:109F40005558A8420AD98A185268904206D28023EE
:109F5000043802681B061343036003E00133EBE798
:109F600008F0C8FB38BDC046E72A0020A42700201F
:109F700070B5002816DD0C4B051C1A681C1C0B4E16
:109F8000002A02D030680BF030FAFA212560002454
:109F90003068074B89008361C46269430BF02DFA76
:109FA000201C00E0034870BDE4270020B4270020F7
:109FB0005DA0010017FCFFFFF8B5114F061C3D68BE
:109FC000002D0AD13020FFF78FFF041C05F0DAFEC8
:109FD0000C4BA5612360E5623C600B4D2B68002BA8
:109FE00009D11020FFF780FF041C0BF053FA201C4E
:109FF0002C600BF029FA301CFFF7BAFFF8BDC04601
:10A00000B4270020D05F0200E0270020014B186831
:10A010007047C046E427002070B50D4C2368002B24
:10A0200003D00C4B1B68002B02D10620FFF7C4FFA6
:10A0300020680BF020FA021C0749C3170D684E6810
:10A040005219734120680A604B600BF01AFA70BD18
:10A05000E0270020B4270020A823002010B5FFF738
:10A06000DBFF0024054BE058002802D003681B6882
:10A0700098470434282CF5D110BDC046B8270020DD
:10A0800008B5FFF7C9FFFA22034B92001868596818
:10A09000002306F025FD08BDA823002008B5FFF722
:10A0A000BBFF024B1868596808BDC046A8230020B2
:10A0B0000B4B10B51B68041C002B03D0094B1B680D
:10A0C000002B02D10620FFF777FF0023064A9900F4
:10A0D0008858002801D00133F8E78C5010BDC046E5
:10A0E000E0270020B4270020B8270020002310B567
:10A0F000044A99008C58844201D00133F8E70020CB
:10A10000885010BDB827002010B5041C002902D0CB
:10A110000B78002B02D1034B236001E009F068F8B3
:10A12000201C10BD24600200F8B5051C0E1C141C78
:10A1300000290AD00B78002B07D0002A05D0081C74
:10A1400097B20BF04AFC874202D90B4B2B6010E010
:10A15000601DFFF7C9FE286009F01DF92868221C60
:10A160004780311C04300BF0DBFB2B681C190023EB
:10A170002371281CF8BDC04624600200014B036017
:10A180007047C0462460020010B50548054C2060A9
:10A1900009F004F9201C0449044A0BF07BFB10BDB4
:10A1A00024600200E8270020E331020000200020A4
:10A1B000084B73B51D68002D0BD0011C041C2E68C4
:10A1C0000831082268460BF0ABFB0CCC3168281C28
:10A1D000884773BDEC27002010B5054C0121201CD9
:10A1E00009F0D0F8201C0349034A0BF053FB10BDC3
:10A1F000F0270020433302000020002008B5074A62
:10A2000003880120934208D0834202D00020DB075C
:10A2100003D41E20FFF784FA002008BDFFFF0000D2
:10A2200010B5041C034B08330360FFF7AFFC201C80
:10A2300010BDC046005C0200FA2370B52A4A41896D
:10A240009B005943131C3833041C181C083A1D6822
:10A250001E1C8D420CD2061C244B227B1D1D082A7D
:10A260000BD8042A09D89D1C022A06D81D1C04E01C
:10A27000083B301C9342EAD1EEE7FA2130688900AE
:10A2800006F04EFA60812B78201C23732A210022CD
:10A2900009F0A7F8002801D0154824E0201C2B2144
:10A2A000102209F09EF80028F6D1201C2D21012251
:10A2B00009F097F80028EFD1201C2E21012209F087
:10A2C00090F80028E8D16A78201C0E2109F089F85E
:10A2D0000028E1D101223379201C1A432A2109F0F8
:10A2E00080F80028D8D170BD2C600200E86502001B
:10A2F0000EFCFFFF7FB5161C0F226A44041C1D1CB8
:10A300001170002E15D0002B13DD0123018900935D
:10A31000006B00F073FD002801D007480AE00090B0
:10A320002189206B321C2B1C00F01EFD002801D05F
:10A33000F3E7024804B070BD0EFCFFFF17FCFFFFFF
:10A34000F7B5061C00250193214B14360833041C75
:10A35000036085808571C581058245820F1C00924E
:10A36000291C1822301C0BF0F8FA301C1C210BF0B1
:10A37000FBF86B469B88211CA3806B461B8802223E
:10A38000238114236381231C3E313833A57122734A
:10A3900027631D705D700B7865879343F13213401E
:10A3A000221CA5870B70231C48321570558001357F
:10A3B000221DD5870833A21DD587201CDD87FFF716
:10A3C0003BFF002802D1A3791D43A571201CFEBDCF
:10A3D000005C020030B50425837987B0041C2B4251
:10A3E00004D1FFF7C5FBA3792B43A371A36AA2692C
:10A3F0001B6800251A422AD1201C01216A46062327
:10A40000FFF778FF002801D0124D20E06B460221B3
:10A410006846595600781B79227B40B25BB25143A3
:10A420005343424389B2D200E281CA00228202220F
:10A430009BB2DB006382A379201C9343A37108F0D5
:10A44000DEFF0122A18802A8131C08F057FF281C78
:10A4500007B030BD0EFCFFFFF8B5041CFFF7BAFFD4
:10A460000E22A35E7C4F5B42BB4205DA231C3E33C7
:10A470001B789B0700D5C6E0201CFFF7ABFF0E2220
:10A48000A35EC8225B4200255200934205DD231CD7
:10A490003E331B789B0700D4B5E0201CFFF79AFFE2
:10A4A0001022A35E5B42BB4205DA231C3E331B78BD
:10A4B0005B0700D5B5E0201CFFF78CFF1022A35EE0
:10A4C000C8225B425200934205DD231C3E331B78B9
:10A4D0005B0700D4A5E0261C201CFFF77BFF12229F
:10A4E000A35E4836BB4205DA231C3E331B781B07AC
:10A4F00000D5A3E0201CFFF76DFF1223E25EC82306
:10A500005B009A4205DD231C3E331B781B0700D4F9
:10A5100094E0002D19D03378032B16D80133DBB229
:10A520003370012B04D1231C00224A331A800CE023
:10A53000042B0AD1221C01213E3213784A340B43EA
:10A540001370002323800B3384E03278002A1AD062
:10A55000211C271C01254A310B883E3701339BB251
:10A560000B803878AC46054008D01D2B0BD96346CC
:10A570009843002338700B80337004E0092B02D914
:10A58000013A0D803270201C08F0A4FF334A0723E3
:10A5900090425FDD201CFFF71DFF0E23E25E304E70
:10A5A00052420323B24255DBC825201CFFF712FF9D
:10A5B0000E23E25EAD0052420423AA424ADC201C74
:10A5C000FFF708FF1023E25E02235242B24241DB52
:10A5D000201CFFF7FFFE1023E25E01235242AA4235
:10A5E00038DC201CFFF7F6FE1223E25E0523B242A0
:10A5F00030DB201CFFF7EEFE1223E25E0623AA42A8
:10A6000028DC002326E00125211C281C3E310B7884
:10A610005A089043021C0220AA40834313430B7044
:10A620003BE70125211C281C3E310B789A089043FA
:10A6300082000420834313430B704CE7211C01224A
:10A640003E310B78D80882430820D200834313435D
:10A650000B7060E7181CF8BD70FEFFFFFF70020072
:10A66000E0FCFFFF70B5C369C2681B688AB0041CB8
:10A67000451D1A4250D0EB7F002B01D0013BEB77F8
:10A68000EB7F082B0DD90123A2791A4209D11A4375
:10A69000A271A1881A1C06A808F030FEFFF7F0FC92
:10A6A0002062EB7F012B26D80123A2791A4222D007
:10A6B0000025A188A57102A8022208F01FFEA31D93
:10A6C000DE7F012E17D1FFF7DBFC2B1C226A801ADC
:10A6D000994100900191019BA18806A8AB4203D14A
:10A6E000164B009A9A4202D90422012301E0032268
:10A6F000331C08F003FE0323A2791340012B1AD167
:10A70000FFF7BEFC0023226A801A9941994208D1C2
:10A710000B4B984205D80EE0EB7F0B2BB0D80133E2
:10A72000ADE70222A379A1881343A37106A80332DF
:10A73000012308F0E3FD0AB070BDC046E703000046
:10A74000DB05000010B5041C034B08330360FFF762
:10A75000CDFC201C10BDC046185C0200F0B5071CE3
:10A7600000250E1C85B002930AAB1B7808370393B3
:10A77000104B041C08330360019285808571291CED
:10A78000381C18220BF0E9F8381C311C039A0AF027
:10A79000F0FE6B466A469B88127AA380A31DE67181
:10A7A000DA77631D2562201CDD77FFF781FC201C12
:10A7B00005B0F0BD185C0200F0B5041C85B0637AEA
:10A7C0009C46002B03D1201C08F0E1FE69E0A37A2F
:10A7D000012101931023266F019AF3560025D31807
:10A7E00099400291291CF3680393039B9D4231DA3F
:10A7F000B368019A6B439B1872695B00E77AD318C0
:10A800001A785878E379012F04D15F1E3F1A101C83
:10A810003A1C0EE0022F05D15F1EBA1A277A013FBB
:10A82000381A06E0032F04D1277A013FBF1A021C11
:10A83000381C5B004343606F8218D3189B796345D3
:10A8400000DD6346627B1A4202D00123AB4019430C
:10A850000135CAE71123C943F356606C9940236957
:10A860001940029B19430AF0DBFFA37B072B18D882
:10A87000627B581C520062730B499A00A073022B32
:10A8800003D888580AF0FFFE99E7084B201C236381
:10A8900000236363064B8958E462236414300AF092
:10A8A000ACFD05B0F0BDC0466C600200B9A7010068
:10A8B0007B35020010B5041C044B03600AF095FDC3
:10A8C000201C05F075FA201C10BDC046D05F0200A8
:10A8D00010B5041C0E4B08330360FFF707FC201C67
:10A8E000743009F01FFC201C603009F01BFC201C98
:10A8F000583008F076FC201C503008F072FC201C08
:10A90000044B14306361FFF7D5FF201C10BDC04617
:10A91000305C0200E85F0200F8B50025041C314BF2
:10A9200085800833036085711430161C0F1C05F0F8
:10A9300029FA201C2C4BE562636125645030FFF737
:10A940001DFC201C5830FFF719FC201C603002F061
:10A950002FFA201C33682667590009B20423F25EDF
:10A96000743009F0F5FB3378226FE3717368A780C8
:10A9700023721023E572A5722561D3569168591888
:10A980008B4204DA0120984001330543F8E7112394
:10A99000D168D35659188B4206DA01229A402069B1
:10A9A000013302432261F6E71420FFF79DFA226982
:10A9B00000212A430123061C05F0BAFBFF22627224
:10A9C000221C00230125483266646573A373237338
:10A9D000201C1370A366FFF76BFBA379201C2B438D
:10A9E000A371F8BD305C0200E85F0200F7B5437A5E
:10A9F000041C002B03D1201C08F0C9FD64E0837AFD
:10AA000001219C461023066F0025F35663449940AC
:10AA10000091291CF3680193019B9D422CDAB368D5
:10AA200072696B4363445B00E77AD3181A785878ED
:10AA3000E379012F04D15F1E3F1A101C3A1C0EE06F
:10AA4000022F05D15F1EBA1A277A013F381A06E095
:10AA5000032F04D1277A013FBF1A021C381C5B0068
:10AA60004343606F8218D3189B79002B02D00123D7
:10AA7000AB4019430135CFE71123C943F356606C4E
:10AA8000994023691940009B19430AF0C9FE667A70
:10AA9000B31EDBB2FC2B14D8FFF7B8FA0B4B051C26
:10AAA000236300230A4863630A4BFF21E4622364A3
:10AAB000704305F0C5FE011C201C694314300AF0E8
:10AAC0009CFC637A012B96D9F7BDC0468F350200F6
:10AAD000B60300007B3502001FB501228188131CDC
:10AAE000684608F00BFC012268460349131C08F075
:10AAF00005FC05B000BDC046FE03000008B54830A7
:10AB00000378002B06D00378012B03D002480121E3
:10AB100008F090FA08BDC046FF03000010B50121FF
:10AB2000041C062008F086FA064B984209D1231C23
:10AB300048331A78002A04D01B78012B01D020BF9B
:10AB4000F5E710BD16FCFFFF70B5051C141E09DBF0
:10AB5000061C48363378002B06D03378012B03D0FF
:10AB60000B4813E00B4811E00022281C131C743022
:10AB700002F078F90020844207D02B1C4A331C8055
:10AB800007234C352880337000E0201C70BDC04680
:10AB900012FCFFFF17FCFFFFF8B50B68051C5B8874
:10ABA000171C012B09D1081C002108F08FFB002283
:10ABB000011C281CFFF7C8FF1DE0002A09DD061C48
:10ABC00048363378002B06D03378012B03D00A485F
:10ABD00011E00A480FE02B1C0024281C5C331C8069
:10ABE000583008F04EFB2B1C4A331F800323201CD7
:10ABF0004C352C803370F8BD12FCFFFF17FCFFFFB3
:10AC0000F8B5002A16DB041C151C0F1CFFF776FF95
:10AC1000231C48331E78F6B2002E0DD1201C391C9F
:10AC20002A1CFFF791FF281E07D0201CFFF776FF94
:10AC3000301C02E0014800E00148F8BD17FCFFFFAE
:10AC400011FCFFFFF7B5002A29DD051C171C0E1C9F
:10AC5000FFF754FF2B1C48331C78E4B2002C20D1A2
:10AC600033685B88012B09D1211C301C08F02EFBB6
:10AC7000221C011C281CFFF767FF13E0311C01A8F0
:10AC800008F0F7FA01A93A1C281CFFF785FF01A874
:10AC900008F0A7FA281CFFF741FF201C02E0024839
:10ACA00000E00248FEBDC04617FCFFFF11FCFFFF9D
:10ACB000F8B5041C171E09DD061C48363378002B36
:10ACC00006D03378012B03D00C4816E00C4814E072
:10ACD000221CE3795632013B1370231C0025201CF3
:10ACE00054331D80503008F0CCFA231C4A331F80A7
:10ACF0000223281C4C3425803370F8BD12FCFFFF62
:10AD000017FCFFFFF7B5002A1BDD051C161C0F1CE6
:10AD1000FFF7F4FE2B1C48331878C4B2002C12D174
:10AD2000391C01A808F0A5FA01A9321C281CFFF75C
:10AD3000BFFF01A808F055FA281CFFF7EFFE201C02
:10AD400002E0024800E00248FEBDC04617FCFFFFDB
:10AD500011FCFFFFFF2902D84172002000E00148EA
:10AD60007047C04617FCFFFFF0B51F1C85B00AAB4B
:10AD70001B78041C039300933B1C0D1C161C0AF04B
:10AD800084FA002832D0237D082B2DD82368002296
:10AD9000191CFC318A62A0211648C9005A50844609
:10ADA0001A5005200138C046C046C046C046C046BD
:10ADB000C046C046C046C046C046C046C046F1D1A7
:10ADC000012062462368985005225A5005F02AFB5C
:10ADD000039B201C0093291C3B1C321C0AF055FAD3
:10ADE000237D01332375CCE7034800E0207505B0CF
:10ADF000F0BDC046FC0F00000EFCFFFFF0B51F1CAD
:10AE000085B00AAB1B78041C039300933B1C0D1CFC
:10AE1000161C0AF022FA002832D0237D082B2DD8E8
:10AE200023680022191CFC318A62A0211648C9003F
:10AE30005A5084461A5005200138C046C046C046C4
:10AE4000C046C046C046C046C046C046C046C046D2
:10AE5000C046F1D1012062462368985005225A501D
:10AE600005F0E0FA039B201C0093291C3B1C321CBC
:10AE70000AF0F3F9237D01332375CCE7034800E0A2
:10AE8000207505B0F0BDC046FC0F00000EFCFFFFB2
:10AE900030B5041C87B0057B006C04F0EDFFA022E8
:10AEA00000210E4BAD00D200285199500C4A1431AC
:10AEB0009950636C217B5B7C6846C91849B208F0E5
:10AEC0002AFD039B019A03211A60207B0130C0B246
:10AED00005F0ACFC217307B030BDC04600700040E7
:10AEE0000405000082B070B5041C002588B00C92E7
:10AEF0000D93636C9A6895420ADA197C02A8691866
:10AF000049B208F008FD069B039A01351A60F0E784
:10AF10005B7C257B02A8ED186DB2291C08F0FBFCB8
:10AF2000039A059B01921A600021182202A80AF0D8
:10AF300014FD02A8291C00220AF01BFB206C00282B
:10AF400001D0FEF7F3FF0820FEF7CEFF291C061CF8
:10AF500004F06AFF094B201CE3620023FA212363FB
:10AF6000074B2664A462E363103009010AF045FA36
:10AF700008B070BC08BC02B01847C04691AE0100D2
:10AF8000C3380200F0B5041C0E1C151C85B00093DC
:10AF90000CAB1B881030019308F0A5F92680658062
:10AFA0001820FEF7A1FF071C02AD2B1C3E1C0AAAAD
:10AFB00003CA03C3009B002108C6301C10220AF0FC
:10AFC000CCFC291C301C08220AF0AAFC064B0222E9
:10AFD0007B61201C00230199A7600A43E360A280E3
:10AFE0002362636205B0F0BDD738020030B5134B61
:10AFF00091B01D68041C002D17D0114B6A460493B4
:10B000000023059304AB03CB03C210230621029354
:10B010000222231C06A8FFF7B5FF2B68281C9B689B
:10B0200006A9984706A808F092F8201C054B103096
:10B030002361FFF73FFC201C11B030BDEC2700203E
:10B04000E5AE0100E85F020070B5002926D00D1CB6
:10B050000026C468002C1ED00222A988A3884B4079
:10B06000134216D1114203D1AB889B0707D510E0DC
:10B07000A068A96809F045F8002804D1F4E7A3689E
:10B08000AA68934205D12B88002B09D022889A42C6
:10B0900006D0646ADEE7201C002E0DDC07480BE0BA
:10B0A0006B88002B02D062889A42F2D1A388044AAE
:10B0B00001361343A380ECE770BDC04617FCFFFFC9
:10B0C0000080FFFFF0B585B0002952D00D1C061C92
:10B0D000C468002C19D0AA880023920702D5A3883F
:10B0E0009B07DB0F226829688A420CD1002B06D00F
:10B0F000A068A96809F005F800283CD103E0A3681E
:10B10000AA68934237D0646AE3E7F0682A88071C8C
:10B11000031E22D01988914205D2596A1F1C0029AA
:10B120000DD00B1CF6E7191C3B1C08E00C88944260
:10B1300007D14F886C88A74203D20B1C496A0029AB
:10B14000F4D183420BD119888A4205D3914206D1AA
:10B1500058886988884202D96B62F56002E0596AB2
:10B1600069625D6268460949012308F0C7F800205A
:10B1700009E0074807E0A3881AB2002A02DA5B0454
:10B180005B0CA380034805B0F0BDC046FD03000082
:10B1900017FCFFFF16FCFFFF064B10B51A1C041C22
:10B1A00008322C33026043600430FEF7EFFC201CB1
:10B1B00010BDC046485C020008B4024B9C460438EF
:10B1C00008BC604799B1010008B4024B9C460438A2
:10B1D00008BC6047433902000C4A0023111C2C3282
:10B1E000083110B5038183724260C360036143611B
:10B1F00043830160041C0430FEF7BAFC044B1A6858
:10B20000002A00D11C60201C10BDC046485C020012
:10B21000EC270020F7B50E1C0125C4680192002C14
:10B2200037D0238832889A4201D0002B26D16388F8
:10B2300072889A4201D0002B20D1FEF70DFC012329
:10B24000002806D0A288BF331340C03B5A42534166
:10B25000DBB2019A934210D1A7883BB2002B0CDBE2
:10B26000201C311C103010220AF05AFB7B0607D438
:10B27000FEF7F2FB002803D006E00025646ACEE763
:10B28000201C08F067FBF9E7211C0348FEF796FD38
:10B29000F4E7281CFEBDC0465539020008B4024B35
:10B2A0009C46043808BC6047D93A020070B5041CBB
:10B2B00000250D4B0E1C0833858085710360211C11
:10B2C000183008F046FC201C211C203008F064FCDB
:10B2D000064BA680A571E5712572E5602561656163
:10B2E000201C1C6070BDC046885C0200F427002052
:10B2F00010B50C1C07F033FE002806D1642C06D8CC
:10B30000A123044ADB00D45002E0034800E00348D4
:10B3100010BDC0460010004016FCFFFF17FCFFFFE9
:10B320008379DB0702D5C160002000E00048704748
:10B3300016FCFFFF8379DB0701D5C06800E00148F8
:10B340007047C04616FCFFFF38B54569002D22D076
:10B35000037A032B21D8041CFFF7ECFFA8622C20F2
:10B36000FEF7C2FD2C220021051C0AF0F6FA00238C
:10B37000626953622369002B01D1226105E0596A99
:10B38000002901D00B1CFAE75A62237A6561013368
:10B390002372002002E0024800E0024838BDC046A7
:10B3A00017FCFFFF13FCFFFF154B70B55A68154DD6
:10B3B000002A03D000225A600132AA601B69114E94
:10B3C000002B1CD000210E4B0F4C19618023DB0099
:10B3D000F358012B0ED1A923DB00F1582068494214
:10B3E000FFF79EFF2068FFF7AFFF23685A69074BFE
:10B3F000F25002E02068FFF793FF0123AB6070BDBD
:10B40000FC10004000100040F4270020040500005C
:10B4100038B5051C0C1C07F0A2FD002804D1034B15
:10B42000034AEC71D45000E0024838BD2405000006
:10B430000010004016FCFFFFF8B582790023D20708
:10B4400072D4051C07F08BFD00286AD16E69002EAE
:10B4500008D12C30FEF748FD041C311C2C220AF0C8
:10B460007CFA6C616B69002B5DD000222F4B0121AF
:10B470005A608022D20511605A68002AFCD0062248
:10B480002B4B2C4C9A562C4B0721E250281CFFF7D3
:10B490002FFFA2230026DB00E650284A284B281C59
:10B4A000E250E979FFF7B4FF01220821254B264835
:10B4B000E6500433E250254B254FE1500433E05071
:10B4C00002232448235024482750244F043827506F
:10B4D0001827234827506F6922482750C120800031
:10B4E000215021498538FF380B500B60802189009D
:10B4F00063587138FF38034363501C4B5E606260D1
:10B500005A68002AFCD000240126184B281C1C6114
:10B51000084B9E60FEF72CFBAB793343AB71231CC9
:10B5200002E0134B00E0134B181CF8BDFC00004078
:10B53000FC660200001000400C0500007469627592
:10B540001C0500002C05000020000402140500006A
:10B55000FFFF0000340500003C0500002110010041
:10B56000540500000405000000E100E0FC1000406C
:10B5700016FCFFFF13FCFFFF031C0069002809D025
:10B580000221054AD167426A1A611A7A013A1A728F
:10B59000024B19607047C04604E100E000E100E0A2
:10B5A00038B5041C0D1C07F0DAFC002845D1002D2D
:10B5B00045D02B78232B42D802220121214BDA6778
:10B5C000214B224A586111615A692049002AFBD057
:10B5D0001F4A1D488D500025456001200860111C40
:10B5E0005A68002AFCD00120184A90600020164AB0
:10B5F00010611869154A0028FBD06069505000207E
:10B6000011494861012111615A69002AFCD00021C9
:10B610000D4A51600D4A013151605A68002AFCD030
:10B6200000200122C021084B49001861074B9A6095
:10B63000084B92185A501A6002E0074800E0074889
:10B6400038BDC04604E100E0FC100040001000409E
:10B650000405000000E100E016FCFFFF17FCFFFFFF
:10B6600038B5002914D04568002D11D0002A0FDB11
:10B670006B6A43602C78033C944200DD141C081C68
:10B68000221C291D0AF04CF9281CFEF74FFC00E093
:10B69000014C201C38BDC04617FCFFFF30B58DB0F3
:10B6A000002912D0232A10D801ACD31C051C00207D
:10B6B00023700123A07002A86370E3700AF030F9D0
:10B6C0002868211CFFF76CFF00E001480DB030BD79
:10B6D00017FCFFFFF0B5234B85B01B785B073FD508
:10B6E000041C09F0EAFD0025236CC6B20227DF5FC7
:10B6F000BD420EDA201C29B2403007F0E7FDB0420F
:10B7000005D1012268462021131C07F0F7FD013501
:10B71000EEE7251C231C4E3528884C331978013060
:10B7200005F074F9231C50331B8889B28B4211D069
:10B730002B88A26CD654636C2980002B10DB2A88DE
:10B740009A420DD1012302225B42636468462021A4
:10B750009B1803E0684620210322012307F0CEFD59
:10B7600005B0F0BDE82A00200121024A13780B43FE
:10B7700013707047E82A00200221024A13780B4315
:10B7800013707047E82A00200121024A13788B4386
:10B7900013707047E82A00200221024A13788B4375
:10B7A00013707047E82A002008B5002903DB024B1C
:10B7B000196009F0F0FD08BDF827002070B5041CE1
:10B7C0001E1C04AB1D7804F093FA201C0E4B403075
:10B7D0002360FEF7D3FC231C01364C330135221CB9
:10B7E0001E701D730023E1214E32A3646365138034
:10B7F00053809381D381013B201C63644902FFF78E
:10B80000D3FF201C70BDC046E05B020038B5012AA2
:10B8100013D0031C051C4E331B88141CC8182B1C8A
:10B820004C33197805F0F2F869640025022C05D133
:10B83000211C202007F0FEFB00E0014D281C38BD34
:10B8400017FCFFFF70B5051C041C0A1C50350029AD
:10B8500007D1031C4E331B882A889A4212D1114803
:10B860001FE0012906D12A88231C4E331B889A42E7
:10B87000FAD007E0022905D1031C4E331B88298822
:10B8800099420AD0A36C28884C341E5C2178013080
:10B8900005F0BCF8301C298003E00121FFF7B6FF5A
:10B8A000F0E770BD0CFCFFFFF0B5061C071C5C3612
:10B8B0005A3733883A8885B09A421FD0104B1B788C
:10B8C0001B071BD5041C3388426DD15C09F0F9FCC1
:10B8D000231C308858331978013005F097F83B88DD
:10B8E0008DB2AB4209D1074968460222012307F015
:10B8F00005FD201C012108F08FF9358005B0F0BD51
:10B90000E82A0020FF03000070B5114D041C2B78BD
:10B910001B0705D5012108F07FF9606DFEF706FBD6
:10B9200008262B78B3432B70231C58331878FEF766
:10B93000DBFA6065002809D0231C00205A331880E8
:10B940002B785C341E4320802E7000E0014870BDCF
:10B95000E82A002013FCFFFFF7B50F1C08A9051CFF
:10B9600009780430002A01D1DC070FD5002F0DD053
:10B97000182618244E43AE1973614B1C5C43054BCB
:10B980002C193261F7600122A36000E0002204F06C
:10B990009DFCF7BDC33B0200F0B5041C002589B037
:10B9A000039104920593049B9D420EDA261C231CEE
:10B9B0005A36378858331978781C05F027F8231C35
:10B9C0005C331B8889B2994207D1059B012B0BD0B0
:10B9D00002210B48FEF790F906E0039B626D5B5D68
:10B9E0000135D3553180DEE70123201C0093211C53
:10B9F000044A0023FFF7B0FF281C09B0F0BDC04681
:10BA0000FF030000A9B80100F7B5134F051C3B78F0
:10BA10000C1C161C9B071DD4FFF7AEFE3B781B07C2
:10BA200012D5002301A90B800122331C281C0C70A5
:10BA3000FFF7B2FF041C311C281C08F0DDF8281C9D
:10BA4000FFF7AAFE201C06E0281CFFF75DFF002878
:10BA5000E7D000E00148FEBDE82A00200DFCFFFF12
:10BA6000F0B5164E85B03378051C5B0705D500216F
:10BA700008F0D2F8A86CFEF759FA04273378BB43D4
:10BA800033702B1C4C331878FEF72EFAA86400286C
:10BA900010D02B1C00244E331C805C803378281C73
:10BAA0003B433370291C0094054A231CFFF754FFC5
:10BAB000201C00E0034805B0F0BDC046E82A002085
:10BAC000D5B6010013FCFFFF70B50E4E3378DB07CF
:10BAD00016D40C1C051CFFF747FE33785B0709D50D
:10BAE000211C281CFFF7AEFE041C281CFFF74CFE8F
:10BAF000201C06E0281CFFF7B3FF0028F0D000E070
:10BB0000014870BDE82A00200DFCFFFFF7B5802733
:10BB10007F053D697C690822113C6C43061C211C91
:10BB2000684609F0FDFE104B009A9A4219D0009326
:10BB3000002301937969301C1339694308F072F8C6
:10BB4000019A301C009908F08EF8301C211C08F076
:10BB500069F87969AB0813396943301C221C08F075
:10BB60006BF80198FEBDC046FECA0000F0B50D1C82
:10BB7000ABB00D9200213022061C12A80B9309F0E5
:10BB8000ECFE281C09F029FF431C0C93102B00DD50
:10BB9000B6E00B9B202B00D9B2E0301C291C08F02A
:10BBA00090F8071E29D1291C0C9A12A809F0B8FE9A
:10BBB0000D990B9A16A809F0B3FE80235B051F6947
:10BBC0005A69301C113A7A435D690D92FFF79EFF66
:10BBD0000D9B002108333022041C1EA80F9309F08E
:10BBE000BCFE291C13397943301C08F01BF80F9B4D
:10BBF0000B9300230C930E9335E010300D990B9AA4
:10BC000009F07FFE041C381CFEF790F9002C7AD056
:10BC1000C9E70B991EA8302209F082FE1EA812A9BE
:10BC200009F0D1FE002822D13849301C221C109185
:10BC3000119408F018F86A460B9B099315AB23CBB7
:10BC400023C223CB23C223CB23C2301C149B1299C3
:10BC5000139A08F016F801230E930B9B30330B93C5
:10BC60000C9B01330C930C9BA342D2DB10E06A4681
:10BC70000B9B099321AB23CB23C223CB23C223CB22
:10BC800023C2301C1E991F9A209B07F0FAFFE4E79D
:10BC9000E5433021ED1725404D430F9B5D190E9B69
:10BCA000002B1BD1B81E04F03BFD84422AD017495B
:10BCB0000134301C221C1091119407F0D4FF6A4605
:10BCC000099515AB23CB23C223CB23C223CB23C29D
:10BCD000301C1299139A149B07F0D3FF301C0D9956
:10BCE00007F0A0FF80235B0559690C2363431339D8
:10BCF00079430233301C0D9A07F09EFF002402E0C6
:10BD0000034C00E0034C201C2BB0F0BDFECA000029
:10BD100017FCFFFF13FCFFFF022802D10122014B99
:10BD20001A707047E92A002038B5064C051C2378A4
:10BD3000002B04D1044801F07FFA01232370281C52
:10BD400038BDC046EA2A002019BD010038B50C1CD8
:10BD500007F005F9002811D0154B00221D1C1A70A0
:10BD6000A40A201C07F0EAFF002803D00A2009F0EB
:10BD700095FCF6E72B78002BFCD018E002210D4A49
:10BD80000D4B9950111C8022D20098580028FAD0EF
:10BD9000A120094DC0002C5098580028FCD000204C
:10BDA000054A50508022D2009A58002AFAD038BD55
:10BDB000E92A00200405000000E00140F8B50D1C50
:10BDC000161C1C1C07F0CBF8002812D0184B0022C0
:10BDD0001F1C1A70281C311C221C07F0ADFF002804
:10BDE00003D00A2009F05AFCF4E73B78002BFCD082
:10BDF0001CE0104A012194460F4B99508022D2003A
:10BE00009A58002AFAD000228027FF00A24207DABF
:10BE1000910070586850D9590029FCD00132F3E7DD
:10BE2000002261465A50DA59002AFCD0F8BDC046BB
:10BE3000E92A00200405000000E00140F0B587B0C9
:10BE40000C9CA405A40D5FD10F1C03928A05920DD2
:10BE50000092D2188D0A029203993A1C061CAD0278
:10BE600007F06EFF00280AD1FF240322391C029B31
:10BE7000A40004339343214001930C9511E00C9BE3
:10BE8000002B41D0191C8023301C5B002A1CFFF7BB
:10BE900095FF291C301CFFF759FF8023211CDB0074
:10BEA000019300230593019B99422BDA184B0B4019
:10BEB00004D50422013B524213430133009ADB00B4
:10BEC000914206DB029A914203DA039A0098121A11
:10BED00000E00C9A525C03279A40131C059A4C1CF4
:10BEE0001343059327400BD1CB179B0F591889108B
:10BEF00089006918301C05AA0123FFF75FFF059729
:10BF0000211CD0E7002000E0024807B0F0BDC04689
:10BF10000300008017FCFFFFFF23F0B52B4C8DB012
:10BF200023700023051C69460088009303F096FEE9
:10BF3000002802D16B469B782370254E3368DB685E
:10BF4000002B06D1002128880A1C0B1C07F008FFD3
:10BF50003AE02378032BF5D81E4901A8FEF7D4F860
:10BF6000336801A9DE6804A807F083F9301C04A92E
:10BF700007F0D6FE061C04A807F033F9371E1ED0C2
:10BF8000311C2022103104A809F0CAFC301CFDF736
:10BF9000CDFF217804ABC9005918082202A809F086
:10BFA000BFFC288802A90822012307F0D9FE012737
:10BFB000002804D128880C21074A07F0CFFE01A8E9
:10BFC00007F00FF9002FBDD00DB0F0BD8123002088
:10BFD000FC270020EE650200FFFF0000F0B583792A
:10BFE00091B0041C5B071BD5FEF74AF800232269B9
:10BFF000801A9941994203D1F423FF3398420FD913
:10C00000A068002808D0364B1D8801F00BF80368A3
:10C01000291C1B6A152298470422A3799343A37114
:10C02000A3799B0759D52E4B2E4D1F882B68DB68B3
:10C03000002B4ED02C4B1A780193032A49D82B4958
:10C0400004A8FEF761F82B6804A9DE6808A807F0C9
:10C0500010F908A9301C07F063FE061C08A807F0B9
:10C06000C0F802AB9A1D0823381C138006A9073BB1
:10C0700007F078FE002E08D0311C08A810312022CD
:10C0800009F04EFC301CFDF751FF019B06A91E78FC
:10C0900008ABF6009E1902ABDA88301C09F031FCBF
:10C0A000002813D0082206A9301C09F039FC2B689F
:10C0B00004A9DD6805A807F0DCF8281C05A908AA72
:10C0C000202307F033FE05A807F08BF804A807F03B
:10C0D00088F80222A3799343A37111B0F0BDC04642
:10C0E000CC2A0020FC27002081230020EE650200DE
:10C0F000F8B58C1EE4B2051C069E132C22D8012034
:10C10000071CA7403C1C244F3C421BD0E97F5C1815
:10C1100069181F2C3EDC701C814203D90878C85472
:10C120000139F8E70021C8B2984204D2545C701873
:10C1300084700131F7E732789A183270EA7F9B18E1
:10C14000EB770DE03478013CE4B2A3420AD1002140
:10C15000C8B2984204D2545C701884700131F7E779
:10C16000002017E0EF7F0120DF193F1B1F2F11DC9C
:10C17000A01C3618EF7FE819864205D23778301BAD
:10C18000023807700136F5E73C1B023C281CEC77AF
:10C1900007F020FEF8BDC0463F000800F0B585B0AE
:10C1A00001930AAB1E880BAB1B78451C02930EABA8
:10C1B0001B78041C03930B78171C03704B8A102206
:10C1C00043820131281C09F0ABFB6B469B88268318
:10C1D00063836B461B7B002623776B4601221B7A09
:10C1E0006761E683EB77A31CDA770C9B0C2563620F
:10C1F000231C201C0D9A28331A705E709E70311C0F
:10C200002A1C2C3009F0A9FB201C074BE663A36312
:10C21000311C2A1C403009F0A0FB201C034B266572
:10C22000E36405B0F0BDC0467B3D02006D3D0200F9
:10C2300038B50D1C00F0F6FE041C0368002D02D179
:10C240005B69984708E09B689847854204D2236859
:10C25000201C9B689847051CFA208000684302490F
:10C2600004F05EFAE08038BD71020000F0B5071CF2
:10C27000161CA1B002C7041C6A4918A81D1C07F0AF
:10C28000EFFD331E03D0301C09F0A7FB83B202225E
:10C29000019200220292039201320093049218A9A3
:10C2A000321C381CFFF77AFF231C18A858335E494C
:10C2B000069307F0D5FD2B1E03D0281C09F08DFB3B
:10C2C00083B2022201920022029203920132009371
:10C2D000049218A92A1C0698FFF760FF231C18A8CF
:10C2E000AC335249079307F0BBFD269B002B03D0CC
:10C2F000181C09F072FB83B2022201920022029202
:10C30000039201320093049218A9269A0798FFF726
:10C3100045FF631CFF3318A84549089307F0A0FDAB
:10C32000279B002B03D0181C09F057FB83B2022275
:10C33000019200220292039201320093049218A902
:10C34000279A0898FFF72AFF231C5533FF3318A8B4
:10C350003849099307F084FD289B002B03D0181C53
:10C3600009F03BFB83B20222019200220292039267
:10C3700001320093049218A9289A0998FFF70EFF3A
:10C38000231CA933FF3318A82B490A9307F068FD33
:10C39000299B002B03D0181C09F01FFB83B202223B
:10C3A0000192002218AD029203920132009304928E
:10C3B0000A98291C299AFFF7F1FE204B1B780B9352
:10C3C000002B2CD1069B12971393079B0DAF149350
:10C3D000089B1B491593099B381C16930A9B12AEA8
:10C3E000179307F03DFD49201D213B7810222B704B
:10C3F0007B8A6B8206ABC918C01809F091FA062334
:10C400002B756B469B8D2068AB83AE6100F01AFEE6
:10C410000368291C1B6898470122084B1A70201CCE
:10C4200021B0F0BD292A0000242A0000252A00009E
:10C43000272A0000262A0000282A0000EB2A0020D4
:10C440000A18000038B50025041C0A4B8580083303
:10C4500085710360C1601830FDF790FE201C1C3010
:10C46000FDF78CFE044BA5601C6001236561201C58
:10C47000A37138BDA05C0200FC270020FA2130B572
:10C4800085B0051C890068460222012306F036FFAC
:10C49000074C2068002809D007F01CFD2988054BAF
:10C4A00022681980022193790B43937105B030BD46
:10C4B000FC270020CC2A002010B507290CD8806862
:10C4C0000C1C00F0AFFD054A036811575B6C9847E0
:10C4D000002802D0024800E0024810BDFC660200BD
:10C4E00016FCFFFF17FCFFFFF0B5051C954CA5449B
:10C4F00096AB1B780C1C08A8934907930692FDF78E
:10C5000003FE281C211C1C3006F0BBFE8F4909A825
:10C51000FDF7FAFD8E490AA8FDF7F6FD0CAE0BA853
:10C5200008A909AA06F0BCFE221C301C11AC0BA9FC
:10C5300006F0B6FE0AAA311C201C06F0B1FE211C32
:10C5400008A806F09EFE201C06F04BFE301C06F0EC
:10C5500048FE0BA806F045FEC020800000F062FEF9
:10C560000820FDF7C1FC071C002100F003FD0C2290
:10C57000AF600021301C09F0F0F9231C07CE07C37F
:10C58000744B381CE3600023211C236107F07AFE02
:10C59000A86800F047FD00210C220590201C09F03E
:10C5A000DCF91420FDF7A0FC6B4B221C1193031C3B
:10C5B000C2CAC2C3694B059FC3600023A43703618D
:10C5C0003B68002B00D003613860A86800F03AFD9A
:10C5D00000210C220590201C09F0BFF91420FDF762
:10C5E00083FC5F4B221C1193031CC2CAC2C35D4B68
:10C5F000C36000230361059B1B6B002B00D003610C
:10C60000059B11AE1863A86800F00CFD00210C22F8
:10C610000590301C09F0A1F91420FDF765FC524B80
:10C620001193031C86CE86C3504B059FC360002325
:10C63000983703613B68002B00D00361386001200C
:10C6400004AB1B7F04AA03430BA9137707F08CFBF1
:10C65000A86800F007FD036845495B6A9847A86829
:10C6600000F000FD036843499B699847A86800F003
:10C67000F9FC0023026800931668191C1A1CB047C5
:10C68000079B002B0AD0281C07F02DFC032805DD92
:10C69000A86800F0E7FC0368DB689847281C0621BF
:10C6A000FFF70AFF069BA9681B68201C0433009350
:10C6B000314B0CAC1B6800260193304B1B68029376
:10C6C0002F4B1B6803932F4B1A682F4B1B68FFF7E8
:10C6D000CDFDA86800F0A6FC0368211C9B6A984762
:10C6E0000823A8682380DB186380A68000F09AFCEA
:10C6F0000368211CDB6A9847A868062107F0BDFB88
:10C70000089B09211A1DA8689B7807F0C9FBA86837
:10C7100000F088FCC8210671A868FFF789FDA868A9
:10C7200000F080FC07F092FB0AA806F05AFD09A869
:10C7300006F057FD08A806F054FD91239B009D4488
:10C74000F0BDC046BCFDFFFFFA650200176602009F
:10C7500008660200893D02007DC40100973D020089
:10C7600019BF0100A53D0200C13D0200B33D02001A
:10C770008DC70100C1C7010008280020E422002065
:10C780000428002000280020E822002013B50622FB
:10C790006846FDF7C9FC094B1C68002C0AD06946A5
:10C7A00001A806F066FD201C01A907F0BDFB01A849
:10C7B00006F017FD684606F014FD13BDFC270020A7
:10C7C000002373B501AE0C1C311C051C019303F052
:10C7D00045FA002802D1B278064B1A70064B186849
:10C7E000002806D061426141044BC9B21D8007F0A8
:10C7F000A3FB73BD81230020FC270020CC2A00204E
:10C800001FB5084B1B68DB8B834209D1064B68467A
:10C810001A78064B06491A700322012306F06EFDB2
:10C8200005B000BD0C280020ED2A0020EC2A0020D5
:10C83000FF030000F0B5071C1C1CABB039610134CC
:10C840001430151C0091FDF799FCE3B2181C0193FC
:10C85000FDF74AFB00240135EDB27860281CFDF796
:10C8600043FB7B4B38601C707A4BBD721C706B466F
:10C870001B797949FB72221C3C727C720DA807F06F
:10C88000DFFB24223B6815AE029304AB9B181B7898
:10C8900004AA337004ABDB8E738245239B18181CEB
:10C8A00025239B18191C102209F03AF8029B6422D8
:10C8B0007361012373830123337704AB9B18583AC8
:10C8C0001A70462304AA9B180122DA771FAB1C704A
:10C8D0006D2304AA9B181C706E2335839B18F48368
:10C8E000211C0C2220A874621C7009F036F85B4BE6
:10C8F000F463B363211C0C2225A809F02EF8584BD1
:10C900005849F364221C34650DA807F099FB5420A4
:10C91000FDF7EAFA24227B68051C039304AB9B18FD
:10C920001B7804AA037004ABDB8E4382431C029382
:10C93000181C25239B18191C102208F0F1FF039BDB
:10C94000029A6B616B469B88EC832B8301236B837C
:10C9500001232B772023D3770122281CAB1CDA7705
:10C9600026336C62211C1C705C709C700C222C3075
:10C9700008F0F3FF281C394BEC63AB63211C0C223D
:10C98000403008F0EAFF364B2C65EB64364B3749F4
:10C99000221C08A81D600495059607F051FB242170
:10C9A00004AB1B7C04AA5218137004AB5B8C04AA62
:10C9B000D386252313399B188918181C102208F0D8
:10C9C000AFFF3821022304AA52181370402204AB8F
:10C9D000139300989B181C8000F034FB03680DA98A
:10C9E0001B689847F38B0098FB6000F02BFB051C3D
:10C9F0001420FDF779FA061C211C0C2208F0ADFF6B
:10CA0000301C1B4B346106A980C008220693079492
:10CA100008F086FF174BF360AB69A34200D0336187
:10CA2000AE61009800F00EFB041C002108A80C2247
:10CA300008F093FF104B08AA0893231C6C3323CAF9
:10CA400023C30E4B381CA3670023E3672BB0F0BD54
:10CA5000ED2A0020EC2A0020476702007B3D0200FF
:10CA60006D3D0200376702000C2800202767020096
:10CA7000973F02006D3F020001C801005F3F0200C6
:10CA800038B5012A10D0051C037A141CC818A97ADD
:10CA900003F0BCFFA9610025022C06D19620211CC1
:10CAA000C00006F0C7FA00E0014D281C38BDC046A2
:10CAB00017FCFFFF38B5012918D00A1C041C437A63
:10CAC000002904D1027A934206D10C4814E00229CD
:10CAD00002D1017A8B420BD0607A2368A17A1D5C67
:10CAE000013003F093FF281C617205E0044803E065
:10CAF0000121FFF7C5FFEFE738BDC0460CFCFFFF83
:10CB000017FCFFFF054B1A78054B19788B1A8A42E0
:10CB100002D9C37ACB189B1A181C7047EC2A002044
:10CB2000ED2A0020F0B58DB002AF002A00DC9BE0BA
:10CB3000012B00D198E0BB6027230025FB18041CC3
:10CB40000069FA6079601D7000F07CFA494A036858
:10CB5000116827229B69BA189847206907F095FA4F
:10CB600002231840A84206D12533FB181B78AB429C
:10CB700003D141487BE0FD6100E0F861206907F0E6
:10CB800084FA830772D52723FB181B78002B6DD0FE
:10CB90006B463B61394B1E78394B1D78FB69BB6195
:10CBA000FB69FA68934212DA681CE17A03F02EFFFF
:10CBB000B14208D0FA697B689B5C62685355BB69D7
:10CBC000CDB20133BB61FB690133FB61E8E7BB69AF
:10CBD0002B4E201CFB613570FFF794FF6A46C31D86
:10CBE000DB08DB00D31A9D46051C02AB181C002194
:10CBF0002A1C7B6108F0B1FE204BE27A1B78201CD6
:10CC00000093337801937B69616807F043FABB684E
:10CC1000022B03D11B480321FDF76EF8206900F0B9
:10CC200011FA144E02683368D98BABB20025009517
:10CC3000D5687A69A847BB68022B11D1FCF7CAFFF7
:10CC4000206900F0FFF927220368BA189B69316850
:10CC500098473B69FA689D46BB6993428EDB05E0C5
:10CC60003B69B8699D4602E0074800E0F869BD46A7
:10CC70000BB0F0BD0C28002016FCFFFFEC2A0020B2
:10CC8000ED2A0020FF03000017FCFFFF002815D04D
:10CC9000006041608260C360046145618661C76174
:10CCA000444604624C464462544684625C46C46214
:10CCB000644604636E46466374468463002A06D065
:10CCC000C46B043C043A25681560B442F9D18C6BFE
:10CCD000A6464E6BB546002B06D0CC6B043C043BFD
:10CCE0001D682560B442F9D10C6BA446CC6AA346FA
:10CCF0008C6AA2464C6AA1460C6AA046CF698E692E
:10CD00004D690C69CB688A6808684968704700609B
:10CD100041608260C360046145618661C7614446C9
:10CD200004624C464462544684625C46C462644673
:10CD300004636E46466374468463C46B043C0439E2
:10CD400025680D60B442F9D1C769866945690469EF
:10CD50007047006041608260C36004614561866124
:10CD6000C761444604624C464462544684625C4651
:10CD7000C462644604636C46446374468463046915
:10CD80007047846BA646446BA546046BA446C46AF0
:10CD9000A346846AA246446AA146046AA046C769BB
:10CDA000866945690469C36882680068416870479C
:10CDB000014B03607047C0468C600200F0B5071C51
:10CDC00085B00D1C1E1C002921DD002B1FD004681E
:10CDD00063880391994200DD0393A38802929A42EB
:10CDE00000DD0293002306340193019B029A9342D3
:10CDF0000BDA201C311C039A08F092FD3B6876196F
:10CE00005B88E418019B0133EEE7002000E0014855
:10CE100005B0F0BD17FCFFFFF8B5041C0E1C151C77
:10CE20001F1C002901DB002A02DA0D4B236015E0EC
:10CE3000101C48430630FDF757F8206006F0ABFAA7
:10CE40002368201C5E809D80002F05D0311C2A1C89
:10CE50003B1CFFF7B3FF01E007F071F9F8BDC046D6
:10CE60008C600200F0B5041C87B004A8151C1E1CC1
:10CE70000F1CFCF7F7FF23685A88954208DA9B8855
:10CE80009E4205DA1F2F03D9059B00939F4201DDC7
:10CE900018482DE0052300217B430193049B029356
:10CEA000019B029ACB18A03BD35C002203938B1901
:10CEB0009C465319276800937888834202DABB881E
:10CEC0009C4507DB0132052AF3D101310529E7D161
:10CED00000200DE063465843009BFB1810271741C4
:10CEE0001818039B1F407B1E9F417F428771E9E713
:10CEF00007B0F0BD17FCFFFFF7B503689E1D5B8808
:10CF00005A1A019200291CDD0C1C051C00279942AD
:10CF100002DB07F014F912E02B689B889F420EDABF
:10CF20003119301C019A08F0FBFC019B211CF01800
:10CF300007F0FFF82B6801375B88F618ECE7002054
:10CF400000E00148FEBDC04617FCFFFF10B50548D4
:10CF5000054C206006F022FA201C0449044A08F01F
:10CF600099FC10BD8C6002001028002025410200B1
:10CF70000020002038B50023041C01604360994262
:10CF80000AD1064D2B68002B02D107F0D8FD28608E
:10CF900023689B00EB586360201C38BD20280020CC
:10CFA00070B500280DD10C4C2668002E07D1083032
:10CFB00008F07FFC051C311CFFF7DCFF25602068B2
:10CFC00008E00122054906480B68134002D10260BF
:10CFD00043600A6070BDC046142800202428002049
:10CFE00018280020436810B5041C002B02D1044807
:10CFF00008F0A4FA606803689B68984710BDC046B3
:10D0000004670200436810B5041C002B02D10448D9
:10D0100008F094FA606803681B69984710BDC04621
:10D0200004670200436810B5041C002B02D10448B9
:10D0300008F084FA606803681B69984710BDC04611
:10D0400004670200436810B5041C002B02D1044899
:10D0500008F074FA606803689B69984710BDC04681
:10D0600004670200436810B5041C002B02D1044879
:10D0700008F064FA606803685B6A984710BDC046B0
:10D080000467020010B5041C01F070FE034B1B681E
:10D09000002B01D0201C984710BDC0462828002036
:10D0A000F0B58DB0051C02F00FFC002000F01AFE58
:10D0B0000368071C1B6998473B68041C9B69381C64
:10D0C00098473B68061C5B6A381C9847031C2888F5
:10D0D00010380B2800D99BE003F018FB063D9A9A04
:10D0E0009A5A9A9A9A619A76AF88201C391C08F04D
:10D0F00006F8221C6B7B583201931378A879191C0F
:10D100000223194306AB11701F80012306AA9370F6
:10D11000D070131C6A461279E91D9A722B1C0622E4
:10D12000163307A80B9308F0FBFB0B20291C06AB5A
:10D13000C0180E31062208F0F3FB94346368A36034
:10D14000A068002864D0C36806A99847A368002B8C
:10D15000F4D01B69F3E7201C3049AF8807F0CFFFFC
:10D16000221C022058321378A9798343137006AB2E
:10D170001F809970A0346368A360A068002847D01E
:10D18000C36806A99847A368002BF4D01B69F3E78E
:10D190005B69A888A91D002B3AD0984738E0636ED8
:10D1A000AF79002B34D01E4A002A31D0A366A06E7E
:10D1B00000282DD0C368391C9847A36E002B01D1DD
:10D1C000636EF3E71B69F1E70122AB7BE91D1A40AF
:10D1D00001925A07920FDB08029206A806226F7B83
:10D1E000049308F09DFB6A46127906ABDA716A4631
:10D1F000127A9F711A726A46127C201C5A722B1C7A
:10D200000F330993231C8C3380301B6806A9984781
:10D21000301C291C07F04BF90DB0F0BDFFFF0000DA
:10D22000BF4202000723D72802D9024B186000230F
:10D23000181C70472C280020014B18607047C0460E
:10D24000282800201FB5A3238022DB00D205D35855
:10D250000820DB0700D405301C4948221C4B01F094
:10D2600051F900280AD080B2002807D1BFF34F8FB0
:10D27000184A194BDA60BFF34F8FFEE7002302A86C
:10D28000029301330370154B1B68436007F015F8D8
:10D29000002801D0072017E0684607F00CF80028A6
:10D2A000F8D1694607F005F80028F3D10C4801F0E1
:10D2B00059F980B2002807D10A4801F05DF980B21F
:10D2C000002801D100F020F805B000BD3028002072
:10D2D000C14202000400FA0500ED00E02C28002005
:10D2E000A1D0010085D0010080B2002807D1BFF392
:10D2F0004F8F034A034BDA60BFF34F8FFEE770474F
:10D300000400FA0500ED00E01FB5002302AC039312
:10D31000283323806933FF336380E380803B01A897
:10D32000FF3B0D490522037006F0D6FF80B20028AE
:10D330000FD18020800006F0CBFF80B2002808D1FA
:10D34000201C06F0C7FF80B2002802D106F0BEFF05
:10D3500080B204B010BDC0465767020073B50E1C02
:10D36000151C0268009394682B1C321C0149A047CD
:10D3700076BDC046FFFF000073B50E1C151C06AA43
:10D38000117802680093019114692B1C321C014929
:10D39000A04776BDFFFF0000F0B50C1C002187B050
:10D3A0006E460091151C0CA90DAA098812783180CF
:10D3B0000193002A03D1011C4679F8310EE0201CAC
:10D3C000291C6A4606F08CFF031E3CD14FE0083151
:10D3D0000F1C083F3F88AF4203D00132B242F6D360
:10D3E0003DE030212032920012580132D27F0A42B1
:10D3F00035D00221002002AED206F3600CABD20F72
:10D40000B3601C4B8A1A3580B270B0809C4207D141
:10D4100000F068FC03681B69984707F073FE041C62
:10D42000201C311C06F060FF80B200281FD011289C
:10D4300013D00ADC08280ED0201C291C6A4606F0EE
:10D440004FFF002809D0032011E00B4B984204D075
:10D450000A4B9842F0D1062009E0052007E0201C85
:10D46000291C6A4606F03CFF0028ECD1063007B0C4
:10D47000F0BDC046FFFF0000033000000134000093
:10D48000F0B5051C97B0081C2E240B9100F0E6FDAA
:10D4900004ABE418109010A90120221C06F01EFF16
:10D4A000002801D00320CEE023880B9A0A909383B2
:10D4B0000B9B0A9A1B7D934250D96B791D2B01D986
:10D4C0000720C0E00B9B9B690C930A9B0C9A9B0066
:10D4D0009C586369002B46D1638B002B43D1631C9E
:10D4E000DB7F022B3FD134E06169631CDA7FA31C30
:10D4F000DB7F0091618B00200191218B0291217FC4
:10D5000003910C9904910D990591211C29310978F9
:10D510000691211C2A310978079169791F31C900C8
:10D520006918089110A907F063FB0028BAD16B793C
:10D53000071C1A1C203292001F335451DB005B5B26
:10D54000E3836B7901336B71231C28331B78BB4257
:10D5500030D80A980130C3B20A93A9E72B7900208A
:10D5600001332B716FE0201C00F078FD0026109035
:10D570000D960C96231C28331B78B342B4D9626AEB
:10D58000B3009F58002311AA1370002011A9CA18D4
:10D5900001335070102BF8D12C4B381C4B8206F005
:10D5A00022FF002803D07B690C937B8B0D930136FF
:10D5B000F6B2DFE78E239B00EB5C132B00D97FE7ED
:10D5C000626ABB009E58002311AA1370002011A9A3
:10D5D000CA1801335070102BF8D11C4B301C4B82F1
:10D5E00006F001FF0C9000282AD1301C00F036FD17
:10D5F000328B738B0092327F109001928E229200B8
:10D60000AA5C0C981D32FF325200AA180232029214
:10D6100010A9726907F0C2FB002800D042E78E23F0
:10D620008E219B00EA5C8900531CDBB26B541D33D6
:10D630007A32FF3392005B005651EB185B88F3831C
:10D64000781CC7B280E717B0F0BDC04601290000C2
:10D65000F0B5041C87B0E36B2364206C002807D06E
:10D66000C368211C9847236C002BF4D01B69F3E797
:10D67000E06B002804D0056908F013F9281CF8E7CE
:10D68000E06320716071E068002804D0056908F04B
:10D6900008F9281CF8E7E060A069002804D00569B3
:10D6A00008F0FFF8281CF8E7A061606A002804D0A1
:10D6B000056908F0F6F8281CF8E7266B6062002E72
:10D6C00005D03569301C08F0ECF82E1CF7E701ADE9
:10D6D000311C2663281C0C2208F03FF9231C2A1C4D
:10D6E000443383CA83C30F4B311C23656665281CF2
:10D6F0000C2208F032F9231C2A1C583383CA83C336
:10D70000084B311C63660C22A666281C08F025F91C
:10D71000231C6C3307CD07C3301C024BE667A3679D
:10D7200007B0F0BD5F3F020038B5051CFFF790FF62
:10D73000041E1CD1281C211C7822803008F00DF911
:10D74000281CE930211C5022FF3008F006F9281C63
:10D75000211C0822F83008F000F9064B211CE818BB
:10D76000282208F0FAF88E239B00EC5400E00624EF
:10D77000201C38BD3A0200000B68002B01D1036069
:10D7800002E0024B0360002343607047BF42020087
:10D7900000487047FFFF00007FB503791648002B53
:10D7A00028D0164D164C2B78201C002B22D102AE0F
:10D7B000301C06F0FEFF002816D17388592B13D1B8
:10D7C0003378B288D91F012904D80092201C202167
:10D7D0000C4A03E0201C202100920B4A05F060F85F
:10D7E00001232B70201C05E0201C0849202208F092
:10D7F000FBF8F7E704B070BD5D670200EE2A002079
:10D80000EF2A00207767020094670200B9670200E0
:10D8100010B5041C024B08C007F0A2F8201C10BD74
:10D82000E05D020010B5041C024B08C007F0ADF823
:10D83000201C10BDF05D0200F0B597B005930368A1
:10D8400007AD1B6804910393111C2B1C061C91C986
:10D8500091C30024D3680CA8211C0C22EB602C611E
:10D8600008F07BF80B4B10940F9311AB1C70002247
:10D8700011AB191901344A70102CF8D15A82059A4B
:10D8800001930092301C04992A1C0CAB039CA04706
:10D8900017B0F0BDEB47020038B5064B041C03601F
:10D8A0004068002804D0056907F0FBFF281CF8E752
:10D8B000201C38BDF05C020038B5064B041C036028
:10D8C0004068002804D0056907F0EBFF281CF8E742
:10D8D000201C38BDC05D020038B5064B041C036037
:10D8E0004068002804D0056907F0DBFF281CF8E732
:10D8F000201C38BDD05D020038B5064B041C036007
:10D900004068002804D0056907F0CBFF281CF8E721
:10D91000201C38BD005E020038B5064B041C0360B5
:10D920004068002804D0056907F0BBFF281CF8E711
:10D93000201C38BD105E020038B5064B041C036085
:10D940004068002804D0056907F0ABFF281CF8E701
:10D95000201C38BD105D020038B5064B041C036066
:10D960004068002804D0056907F09BFF281CF8E7F1
:10D97000201C38BD205D020038B5064B041C036036
:10D980004068002804D0056907F08BFF281CF8E7E1
:10D99000201C38BD005D020038B5064B041C036036
:10D9A0004068002804D0056907F07BFF281CF8E7D1
:10D9B000201C38BD505E020038B5064B041C0360C5
:10D9C0004068002804D0056907F06BFF281CF8E7C1
:10D9D000201C38BD605E0200FC3070B5C56B061CB3
:10D9E000002D16D1342007F064FF041C291C3422BA
:10D9F00007F0B3FF084BA5606360084B65612361C6
:10DA0000074B2562E361074BE562A362064B236087
:10DA1000F463F06B70BDC046F05D0200E05D020093
:10DA2000505E0200605E0200705E0200FC3038B59D
:10DA3000046C051C002C0DD1242007F03AFF064B86
:10DA400044608361054B8460C46004614461C461C7
:10DA500003602864286C38BDC05D0200A85E020027
:10DA6000FC3038B5046C051C002C0DD1242007F0C7
:10DA700020FF064B44608361054B8460C4600461F1
:10DA80004461C46103602864286C38BDC05D020035
:10DA9000A85E0200104B10B5083303600F4B041C46
:10DAA000C36080230E4A5B00C250C018FCF702FF1F
:10DAB000201C0C4BB830E360FFF74EFF201CAC304D
:10DAC000FFF73AFF201CA030FFF756FF201C6C30F8
:10DAD000FFF7E2FE201C10BDD85E0200205F0200AE
